:020000040000FA
:0400000057EF06F0C0
:10060000002020202020202020202020202020200A
:1006100020004745415200494E440052504D00537E
:0306200050000087
:100624000150D96EDA6ADF50056EA0EF03F08150F5
:100634003F0B816E1E50036E1F50046E1E4A1F2A0C
:10064400045007E1320E035CD8B02BEF03F02DEF1A
:1006540003F032EF03F081500309816EBDEF03F024
:100664001F5007E1640E1E5CD8B03BEF03F03DEF72
:1006740003F042EF03F08150FC0B816EBDEF03F0F9
:10068400000E1F6E000E1E6EBDEF03F08150FC0BBA
:10069400816E1E50036E1F50046E1E4A1F2A0450A2
:1006A40007E1320E035CD8B05AEF03F05CEF03F0BD
:1006B40061EF03F08150C009816EBDEF03F01F505C
:1006C40007E1640E1E5CD8B06AEF03F06CEF03F030
:1006D40042EF03F081503F0B816EBDEF03F01E50DB
:1006E400036E1F50046E1E4A1F2A045007E1320E87
:1006F400035CD8B080EF03F082EF03F08AEF03F0DD
:1007040081500309816E8150C009816EBDEF03F0F1
:100714001F5007E1640E1E5CD8B093EF03F095EF11
:1007240003F042EF03F08150FC0B816E81503F0BCC
:10073400816EBDEF03F0816A42EF03F00550036E52
:10074400046A0450000AD8B4AAEF03F0BDEF03F022
:100754000350000AD8B49DEF03F0010AD8B419EF8E
:1007640003F0030AD8B448EF03F0010AD8B471EFD8
:1007740003F0BDEF03F01200066A04BEC6EF03F0F7
:10078400C4EF03F0CCEF03F0036C041ED8B0042ACA
:10079400010E066E02BED3EF03F0D1EF03F0D9EFE2
:1007A40003F0016C021ED8B0022A010E061A000ED4
:1007B400086E000E076E03500410D8B4E4EF03F083
:1007C400E6EF03F00EEF04F0010E056EEEEF03F01A
:1007D400D89003360436052A04AEF3EF03F0F5EFA0
:1007E40003F0EAEF03F0D890073608360350015CB3
:1007F40004500258D8A001EF04F003EF04F008EF0E
:1008040004F00350015E0450025A0780D890043269
:100814000332052EF5EF03F00650D8B414EF04F0BC
:1008240016EF04F01AEF04F0076C081ED8B0082A7B
:1008340007C001F008C002F01200066A02BE27EFEA
:1008440004F025EF04F02DEF04F0016C021ED8B083
:10085400022A010E066E04BE34EF04F032EF04F0F7
:1008640038EF04F0036C041ED8B0042A03500410BB
:10087400D8B43FEF04F041EF04F065EF04F0010E4B
:10088400056E49EF04F0D89003360436052A04AE09
:100894004EEF04F050EF04F045EF04F00350015C18
:1008A40004500258D8A059EF04F05BEF04F05FEF56
:1008B40004F00350015E0450025AD890043203320B
:1008C400052E50EF04F00650D8B46BEF04F06DEF32
:1008D40004F071EF04F0016C021ED8B0022A01C0CA
:1008E40001F002C002F012001B0E096E130E0A6E14
:1008F4001D0E0B6EC7EC04F0100E1B181C10D8A4B0
:1009040086EF04F088EF04F090EF04F0130E096E04
:100914001DC00AF010EC05F0C6EF04F0200E1B1801
:100924001C10D8A498EF04F09AEF04F0A2EF04F09E
:10093400130E056E1DC006F022EC06F0C6EF04F09F
:10094400300E1B181C10D8A4AAEF04F0ACEF04F06E
:10095400B4EF04F0130E056E1DC006F03DEC05F077
:10096400C6EF04F0500E1B181C10D8A4BCEF04F002
:10097400BEEF04F0C6EF04F0130E016E1DC002F0CA
:1009840012EC03F0C6EF04F0120060AECCEF04F0FA
:10099400CEEF04F00BEF05F0B2EC05F00950D96E80
:1009A400DA6A01C0DEFF02C0DDFF0B50D96EDA6ADD
:1009B40065CFDFFF660E0F6E0F0E106E000E126E07
:1009C400000E116EF4EF04F011500F24D96E125082
:1009D4001020DA6E0A501124E16EE26ADFCFE7FFDD
:1009E400114A122A0B50D96EDA6ADF500C6E0D6A66
:1009F4000C50115C1250800A0E6E0D50800A0E5875
:100A0400D8A007EF05F009EF05F0E6EF04F0609ECB
:100A1400A4900B50D96EDA6ADF6A12000950D96EBD
:100A2400DA6ADF500B6E0B50016E026A000E046E20
:100A34000A0E036EBEEC03F00150300F0C6E095029
:100A4400D96EDA6ADF500B6E0B50016E026A000E2B
:100A5400046E0A0E036E1FEC04F00150300F0D6E8D
:100A6400C00E036E0C5035EC06F0C10E036E0D5033
:100A740035EC06F01200000E0B6E080E0A6E000E26
:100A84000D6E000E0C6E55EF05F00A50C00F036E8C
:100A940005500C24D96EDA6ADF5035EC06F00A4AA8
:100AA4000B2A0C4A0D2A0650076E086A07500C5C84
:100AB4000D50800A096E0850800A0958D8A065EFC5
:100AC40005F067EF05F047EF05F0120041EC06F082
:100AD40093503C0B936E010E036EC00E046E91ECAA
:100AE40005F01F0E036E800E046E91EC05F0120EDD
:100AF400036E830E046E91EC05F01B0E036E880EDC
:100B0400046E91EC05F0170E036E8D0E046E91ECDD
:100B140005F076EC04F073EF05F000EF00F0000E42
:100B2400016E0450CFEC05F0A3EF05F0010E016E49
:100B340003C0F6FF060EF76E0800F550CFEC05F083
:100B4400032A03C0F6FF060EF76E0800F5500009ED
:100B5400D8A4AFEF05F0B1EF05F098EF05F012005F
:100B64006150036E046AD89003360436D890033675
:100B74000436D890033604366238E842070B070B74
:100B8400056E066A03500510076E04500610086EC1
:100B940007C001F008C002F01200026E01B0D5EFE8
:100BA40005F0D8EF05F08282D9EF05F0829202C0F9
:100BB40083FF82848294958E82808292828482943E
:100BC40083BEE7EF05F0E9EF05F0E0EF05F0829072
:100BD400959E1200939493861F0E6F166F8E800E4F
:100BE4006E18D8A4F8EF05F0FAEF05F0F1EF05F070
:100BF400776AE10E706E1B0E716E030E726E0D013C
:100C0400D46B1F0E6F166F50606A1200956A945071
:100C1400F80B946E8290000E016E020ECFEC05F07C
:100C2400000E016E380ECFEC05F0000E016E0C0EB6
:100C3400CFEC05F0000E016E010ECFEC05F01200B2
:100C4400C40E036E0550D96EDA6ADF5035EC06F037
:100C5400C50E036E0550D96EDA6A010ED926DF502F
:100C640035EC06F01200046E000E016E0350CFEC5A
:100C740005F0010E016E0450CFEC05F0120008ECF3
:100C840006F0ECEC05F05EEC06F0F28CF28E4CEC27
:100C940006F01200D58CD59AD58ED586000ED76E67
:100CA400060ED66EF294F28A12001F6A1E6A000EB5
:100CB400F86E000168EF05F0080E936E816A120069
:020000040020DA
:08000000FFFFFFFFFFFFFFFF00
:020000040030CA
:0E000000FF071F1FFF8285FF0FC00FE00F409C
:00000001FF
