:020000040000FA
:040000003AEF08F0DB
:1006000000001250800B1F6E12501224266E11AE85
:100610000CEF03F00EEF03F00FEF03F026802650EF
:10062000D8B415EF03F017EF03F02BEF03F02628F3
:10063000D8A41DEF03F01FEF03F027EF03F0000E27
:100640000F6E000E106E000E116E000E126E118EE7
:10065000126A33EF03F0000E0F6E000E106E000EE4
:10066000116E000E126E1650800B1F1A16501624B3
:10067000276E15AE3EEF03F040EF03F041EF03F0BD
:1006800027802750D8B447EF03F049EF03F05DEF20
:1006900003F02728D8A44FEF03F051EF03F059EFF0
:1006A00003F0000E136E000E146E000E156E000E99
:1006B000166E158E166A65EF03F0000E136E000EAF
:1006C000146E000E156E000E166E135014101510D9
:1006D0001610D8A46EEF03F070EF03F088EF03F06C
:1006E000000E0F6E000E106E000E116E000E126ED8
:1006F000800E11127F0E12121F5012120FC00FF037
:1007000010C010F011C011F012C012F0C8EF04F0C8
:100710002650D8A48EEF03F090EF03F09AEF03F089
:10072000000E0F6E000E106E000E116E000E126E97
:10073000C8EF04F0275026C017F0186A175E000EA5
:10074000185A7F0E1724206E000E1820216E0FC03D
:100750001BF010C01CF011C01DF012C01EF0000EE6
:100760000F6E000E106E000E116E000E126E000E57
:10077000226E000E236E000E246E000E256E276A78
:10078000FAEF03F02750D8B4C8EF03F0CAEF03F034
:10079000E1EF03F0D8901B361C361D361E36D8907C
:1007A0000F3610361136123625AED9EF03F0DBEFD7
:1007B00003F0DCEF03F00F80D89022362336243686
:1007C000253613501B5C14501C5815501D581650DC
:1007D0001E58D8A0EEEF03F0F0EF03F0F9EF03F0AE
:1007E000258C13501B5E14501C5A15501D5A165060
:1007F0001E5A272A190E276400EF04F002EF04F0B6
:10080000C2EF03F01B501C101D101E10D8B40BEFCC
:1008100004F00DEF04F025EF04F0228025EF04F042
:10082000D8900F3610361136123625AE1AEF04F076
:100830001CEF04F01DEF04F00F80D8902236233611
:10084000243625362006D8A0210611AE2AEF04F062
:100850002CEF04F010EF04F0276A25AE32EF04F01D
:1008600034EF04F058EF04F0FF0E2214176EFF0E61
:100870002314186EFF0E2414196E7F0E25141A6EA1
:100880001750181019101A10D8B449EF04F04BEF94
:1008900004F04FEF04F0010E276E58EF04F00FA0A4
:1008A00054EF04F056EF04F058EF04F04BEF04F06F
:1008B0002750D8B45EEF04F060EF04F084EF04F04A
:1008C000010E0F26000E10221122122212A06BEF31
:1008D00004F06DEF04F084EF04F00FC017F010C0C7
:1008E00018F011C019F012C01AF01A341A32193265
:1008F0001832173217C00FF018C010F019C011F0DD
:100900001AC012F0204A212A21BE8FEF04F0215094
:1009100008E12028D8A08FEF04F091EF04F09CEFBD
:1009200004F0000E216E2068000E0F6E000E106E97
:10093000000E116E000E126E21BEA9EF04F02150C0
:1009400006E12004D8B0A7EF04F0A9EF04F0B6EF59
:1009500004F0000E216E000E206E000E0F6E000ED1
:10096000106E000E116E000E126E1F6A20C026F06F
:1009700026A0BDEF04F0BFEF04F0C2EF04F0118E2B
:10098000C3EF04F0119ED8902630126E7CEF03F076
:100990001200096E0950D8B4D0EF04F0D2EF04F081
:1009A000F4EF04F004BED9EF04F0D7EF04F0F4EF55
:1009B00004F001C005F002C006F003C007F004C057
:1009C00008F0051E061E071E081E052A000E062238
:1009D0000722082205C00BF006C00CF007C00DF07E
:1009E00008C00EF0FCEF04F001C00BF002C00CF0E8
:1009F00003C00DF004C00EF00150021003100410EB
:100A0000D8A405EF05F007EF05F011EF05F0000E93
:100A1000016E000E026E000E036E000E046EA2EF59
:100A200005F0960E0A6E1BEF05F00A2AD8900E32DA
:100A30000D320C320B32000E0B14056E000E0C142E
:100A4000066E000E0D14076EFE0E0E14086E055095
:100A5000061007100810D8A430EF05F032EF05F0AB
:100A600015EF05F040EF05F00A2A010E0B26000EE7
:100A70000C220D220E22D8900E320D320C320B3287
:100A8000000E0B14056E000E0C14066E000E0D14F5
:100A9000076EFF0E0E14086E0550061007100810A2
:100AA000D8A455EF05F057EF05F034EF05F05FEFF0
:100AB00005F00A06D8900B360C360D360E360DBEF4
:100AC00064EF05F066EF05F06EEF05F0020E0A60C8
:100AD0006CEF05F06EEF05F059EF05F00AB073EF1B
:100AE00005F075EF05F076EF05F00D9ED8900A320F
:100AF0000AC005F0066A076A086A05C008F0076AB6
:100B0000066A056A05500B1206500C1207500D12AA
:100B100008500E120950D8B490EF05F092EF05F08E
:100B20009AEF05F004BE99EF05F097EF05F09AEF04
:100B300005F00E8E0BC001F00CC002F00DC003F0EA
:100B40000EC004F01200819A818C818E81B2ABEFCD
:100B500005F0ADEF05F0B0EF05F0010E26EF06F061
:100B600081B4B5EF05F0B7EF05F0BAEF05F0040E6C
:100B700026EF06F081B6BFEF05F0C1EF05F0C4EF38
:100B800005F0070E26EF06F081B8C9EF05F0CBEFB0
:100B900005F0CEEF05F00A0E26EF06F0818A819C63
:100BA000818E81B2D6EF05F0D8EF05F0DBEF05F0CE
:100BB000020E26EF06F081B4E0EF05F0E2EF05F05B
:100BC000E5EF05F0050E26EF06F081B6EAEF05F039
:100BD000ECEF05F0EFEF05F0080E26EF06F081B818
:100BE000F4EF05F0F6EF05F0F9EF05F00B0E26EF48
:100BF00006F0818A818C819E819E81B202EF06F08F
:100C000004EF06F007EF06F0030E26EF06F081B4BE
:100C10000CEF06F00EEF06F011EF06F0060E26EFD1
:100C200006F081B616EF06F018EF06F01BEF06F09F
:100C3000090E26EF06F081B820EF06F022EF06F04D
:100C400025EF06F00C0E26EF06F0FF0E12002A34F8
:100C50002B34316E3150D8A430EF06F032EF06F06D
:100C60003CEF06F0000E286E000E296E000E2A6E74
:100C7000000E2B6EA9EF06F028C02CF029C02DF035
:100C80002AC02EF02BC02FF0200E4CEF06F0D8908B
:100C90002F322E322D322C32E82E47EF06F02C5018
:100CA000306E2A8EFF0E2816FF0E2916FF0E2A160A
:100CB000000E2B16960E315E31BE63EF06F061EF2B
:100CC00006F079EF06F03150800A970FD8B06BEF3D
:100CD00006F06DEF06F06FEF06F032EF06F0D890F9
:100CE0002B322A3229322832313E6FEF06F091EF53
:100CF00006F01F0E31647FEF06F081EF06F089EFFA
:100D000006F032EF06F0D890283629362A362B36F0
:100D100031063150D8A48FEF06F091EF06F083EF43
:100D200006F03050D8B497EF06F099EF06F0A1EF37
:100D300006F02B1E2A1E291E286C000E29222A22AC
:100D40002B2228C028F029C029F02AC02AF02BC065
:100D50002BF0120020EE3CF010EE04F01A0EDBCF68
:100D6000E3FFE806FCE2000E216E000E206E010E8D
:100D700099EC07F01F6E0E0E1F18D8A4C2EF06F0F4
:100D8000C4EF06F0C6EF06F0204A212A0D0E1F1808
:100D9000D8A4CDEF06F0CFEF06F0DDEF06F021503E
:100DA00009E1020E205CD8A0D8EF06F0DAEF06F0D9
:100DB000DDEF06F02006D8A021060B0E1F18D8A4E0
:100DC000E4EF06F0E6EF06F0EAEF06F0000E216E23
:100DD000080E206E030E2002F3CF02F0F4CF03F0D2
:100DE0002102F3500326040E02241200040EC5EC67
:100DF00007F001C034F002C035F0AE0E136E470E9E
:100E0000146E250E156E410E166E34C001F035C0FD
:100E100002F0000E02BEFF0E036E046E010EC9EC5E
:100E200004F001C00FF002C010F003C011F004C0C4
:100E300012F001EC03F00FC028F010C029F011C02F
:100E40002AF012C02BF027EC06F028C036F029C09B
:100E500037F036C032F037C033F012000F01436B69
:100E6000446B05C001F006C002F006EC08F008C0B3
:100E700045FF460E0C6E0F0E0D6E000E0F6E000E2F
:100E80000E6E51EF07F007500E24D96EDA6A0E503D
:100E90000C24E16E0F500D20E26EDFCFE7FF0E4A0B
:100EA0000F2A0850096E0A6A09500E5C0F50800A1A
:100EB0000B6E0A50800A0B58D8A061EF07F063EF61
:100EC00007F043EF07F00F014087120066EC08F0CF
:100ED000F6EC06F032C039F033C03AF0AAEC06F076
:100EE0003B6E000E066E100E056E390E076E010E7B
:100EF000086E2EEC07F0070E386E7D0EE82EFED73A
:100F0000382EFCD70000000E066E200E056E3B0E3C
:100F1000076E010E086E2EEC07F0070E386E7D0E80
:100F2000E82EFED7382EFCD7000068EF07F000EF60
:100F300000F0016E0104D8A4A0EF07F0A2EF07F0C3
:100F4000C3EF07F0A3EC05F0596E5928D8B4ABEF06
:100F500007F0ADEF07F0B9EF07F05750D8B4B3EF93
:100F600007F0B5EF07F0B9EF07F0576A5950C4EF33
:100F700007F05928D8A4BFEF07F0C1EF07F0C3EF7F
:100F800007F0010E576EFF0E1200076E07C003F048
:100F9000D8900336D8900336C250C30B0310C26EEC
:100FA000C282C2B2D6EF07F0D8EF07F0D1EF07F058
:100FB000C350C4CF03F0046A03C004F0036A0310F3
:100FC000056E0450066E05C001F006C002F0120066
:100FD000939493861F0E6F166F8E800E6E18D8A492
:100FE000F4EF07F0F6EF07F0EDEF07F0776AE10EA8
:100FF000706E1B0E716E030E726E0D01D46B1F0EA0
:101000006F166F50606A608A608C120001C003F036
:10101000070E0316050E046ED8900336042E0CEF4F
:1010200008F003500F01426F01C003F002C004F04A
:10103000D89004320332D89004320332D89004326C
:1010400003320350416F1200C29AC288C296C29402
:10105000C292C280C19AC198C186C194C182C19016
:10106000C094C082C090C08AC098C096C08EC36A27
:10107000C46A12009C0EF66E100EF76E000EF86E2B
:1010800000EE3CF010EE1DF00900F5CFEEFFE5504C
:10109000E150FAE1596A000166EF07F04F4E004750
:1010A0004E00473100473200473300473400473590
:0910B00000475200435F000101FA
:1010BA000F0EC16E1E0E936EF19E8150E009816E75
:1010CA0012005DEC08F024EC08F0E8EC07F01200DE
:020000040020DA
:08000000FFFFFFFFFFFFFFFF00
:020000040030CA
:0E000000FF071F1FFF8285FF0FC00FE00F409C
:00000001FF
